:020000040800F2
:10000000FFFF0120F56800083D6900083D69000810
:100010003D6900083D6900083D69000800000000D6
:10002000000000000000000000000000F92F0008A0
:100030003D69000800000000B530000805310008E7
:100040003D6900083D6900083D6900083D690008F8
:100050003D6900083D6900083D6900083D690008E8
:100060003D6900083D6900083D6900083D690008D8
:100070003D6900083D6900083D6900083D690008C8
:100080003D6900083D6900083D6900083D690008B8
:100090003D6900083D6900083D6900083D690008A8
:1000A0003D6900083D6900083D6900083D69000898
:1000B0003D6900083D6900083D6900083D69000888
:1000C0003D6900083D6900083D6900083D69000878
:1000D0003D6900083D6900083D6900083D69000868
:1000E0003D6900083D6900083D6900083D69000858
:1000F0003D6900083D6900083D6900083D69000848
:100100003D6900083D6900083D6900083D69000837
:100110003D6900083D6900083D6900083D69000827
:100120003D6900083D6900083D6900083D69000817
:100130003D6900083D6900083D6900083D69000807
:100140003D6900083D6900083D6900083D690008F7
:100150003D6900083D6900083D6900083D690008E7
:100160003D6900083D6900083D6900083D690008D7
:100170003D6900083D6900083D6900083D690008C7
:080180003D6900083D6900081B
:100190000648074B10B5834204D0064B002B01D014
:1001A00000F04EF810BC01BC0047C046880000209B
:1001B000880000200000000008480949091A8B1037
:1001C000C90FC91810B5491004D0064B002B01D037
:1001D00000F036F810BC01BC0047C0468800002083
:1001E000880000200000000010B5084C2378002B88
:1001F00009D1FFF7CDFF064B002B02D00548AFF326
:1002000000800123237010BC01BC0047880000203F
:1002100000000000EC750008064B10B5002B03D061
:1002200005490648AFF30080FFF7C6FF10BC01BCCC
:100230000047C046000000008C000020EC7500085C
:100240001847C046344B35481A68002142F0010275
:100250001A6099601A6822F0847222F480321A605F
:1002600058601A6882B022F480221A60D960009126
:1002700001911A6842F480321A6003E0009AB2F5E4
:10028000A04F09D01A6802F400320192009A01329C
:100290000092019A002AF1D01F4B1B6813F400331F
:1002A00018BF01230193019B012B05D01C4B4FF07C
:1002B00000629A6002B07047174B1A491A6C1A48CC
:1002C00042F080521A640A6842F440420A609A6816
:1002D0009A609A6842F400429A609A6842F4A05286
:1002E0009A6058601A6842F080721A601A68920127
:1002F000FCD50E4A084940F2057010609A6822F059
:1003000003029A609A6842F002029A608B6803F0D6
:100310000C03082BFAD1C9E7003802401030002442
:1003200000ED00E00070004008544007003C02402F
:10033000154A936803F00C03042B0BD0082B0BD049
:10034000124B114A12499268C2F303128A5CD340DD
:100350000B6170470F4BF4E75068516852684302D5
:10036000C2F388124CBF0C4B084B01F03F01B3FBAA
:10037000F1F303FB02F3044A5268C2F30142013273
:100380005200B3FBF2F3DCE7003802400024F40033
:100390000400002000127A0040787D0100F108037B
:1003A0004FF0FF310022C0E90333816002604360F7
:1003B000704700BF00230361704700BF43680268B5
:1003C00010B49C688C609C684B60013261609960DD
:1003D00010BC08610260704730B40D686B1C10D00F
:1003E00000F108031C465B681A68AA42FAD9026841
:1003F0004B60013299608C606160086130BC0260C2
:10040000704704696368F2E7036910B4D0E9011228
:100410005C688A608442516008BF5A601A6810BCE8
:100420000021013A01611A601868704770B50446EE
:10043000006CA66B20B925685DB30136A66370BD5C
:100440001546024685B9606805F038FE6368216C80
:10045000A2680B449342636006F1010624BF23683F
:1004600063602846A66370BDE06805F027FE226C35
:10047000E36821689B1A8B42E360C2F1000202D25A
:10048000A3681A44E260022D08D001360020A6635A
:1004900070BDA06801F08CFFA560CEE7012E38BFCB
:1004A00001260020CAE700BF026C72B1034610B4F7
:1004B0000846D3E902411144A142D96028BF196816
:1004C00010BC28BFD96005F0F9BD704770B504466F
:1004D00002F0BAFD94F845506DB2002D15DD04F11F
:1004E000240604E06B1E13F0FF0F5DB20DD0636AAB
:1004F000304653B101F01AFD0028F3D001F0FEFDA3
:100500006B1E13F0FF0F5DB2F1D1FF2384F845306D
:1005100002F0BCFD02F098FD94F844506DB2002D3D
:1005200015DD04F1100604E06B1E13F0FF0F5DB241
:100530000DD02369304653B101F0F8FC0028F3D008
:1005400001F0DCFD6B1E13F0FF0F5DB2F1D1FF2354
:1005500084F84430BDE8704002F098BD4FF050037D
:1005600083F31188BFF36F8FBFF34F8FFEE700BF98
:1005700038B5E0B104460D4602F066FDD4E90F132C
:100580002268626001FB03F1CB1A134400200A4485
:10059000FF21A063C4E9022384F8441084F84510C5
:1005A0003DB923698BB902F071FD012038BDFFF719
:1005B000D5FF04F11000FFF7F1FE04F12400FFF76E
:1005C000EDFE02F063FD012038BD04F1100001F0E2
:1005D000ADFC0028E7D0044B4FF080521A60BFF307
:1005E0004F8FBFF36F8FDEE704ED00E0F8B540B941
:1005F0004FF0500383F31188BFF36F8FBFF34F8F1A
:10060000FEE70E4617460546C9B101FB00F0B0FBF8
:10061000F1F3AB4201D0FFF7A1FF503002F050FEE2
:10062000044698B104F150032360C4E90F56012138
:100630002046FFF79DFF84F84C702046F8BD5020FF
:1006400002F03EFE044608B12460EEE70024F4E721
:1006500040B94FF0500383F31188BFF36F8FBFF39E
:100660004F8FFEE7884210B50C4608D24FF050037A
:1006700083F31188BFF36F8FBFF34F8FFEE7022222
:100680000021FFF7B3FF00B1846310BD2DE9F047EF
:1006900084B00192002876D088461F46044600297F
:1006A00065D0022F0BD1E36B012B08D04FF0500324
:1006B00083F31188BFF36F8FBFF34F8FFEE701F015
:1006C00015FE0646002867D00026DFF83CA14FF053
:1006D000000907E002F0DAFC2046FFF7F7FE01F020
:1006E000CFF9012602F0B0FCA26BE36B9A4263D310
:1006F000022F61D0019D002D00F08280002E57D086
:1007000002F0C4FC01F0B2F902F09EFC94F844300F
:10071000FF2B08BF84F8449094F84530FF2B08BFA6
:1007200084F8459002F0B2FC01A902A801F0A2FCF5
:1007300000285ED102F088FCA26BE36B9A42C9D11B
:1007400002F0A4FC019904F1100001F089FB20469D
:10075000FFF7BCFE01F094F90028C2D14FF080539E
:10076000CAF80030BFF34F8FBFF36F8FB9E7036C48
:10077000002B96D04FF0500383F31188BFF36F8F97
:10078000BFF34F8FFEE74FF0500383F31188BFF3A1
:100790006F8FBFF34F8FFEE7019B002B95D04FF07B
:1007A000500383F31188BFF36F8FBFF34F8FFEE7C2
:1007B00002A801F055FCA3E73A4641462046FFF760
:1007C00035FE626A72B938B10F4B4FF080521A6031
:1007D000BFF34F8FBFF36F8F02F058FC012004B0BE
:1007E000BDE8F08704F1240001F0A0FB0028F3D05D
:1007F000EAE72046FFF76AFE01F042F90020EEE743
:1008000002F044FC2846EAE704ED00E010B5024699
:1008100000210120FFF7EAFE044638B1002383607F
:100820000360C3601A461946FFF730FF204610BD2B
:1008300038B538B18568044601F052FD85420AD0CA
:10084000002038BD4FF0500383F31188BFF36F8F42
:10085000BFF34F8FFEE7E368013BE3600BB101207C
:1008600038BD20461A461946FFF710FF012038BD53
:100870002DE9F843002835D0894690461F460446A6
:1008800021B3022F0BD1E36B012B08D04FF05003A3
:1008900083F31188BFF36F8FBFF34F8FFEE702F032
:1008A000B7FCEFF311864FF0500383F31188BFF3C9
:1008B0006F8FBFF34F8FA26BE36B9A421BD3022F54
:1008C00019D0002086F31188BDE8F883036C002B53
:1008D000D7D04FF0500383F31188BFF36F8FBFF36E
:1008E0004F8FFEE74FF0500383F31188BFF36F8FF4
:1008F000BFF34F8FFEE794F84550A36B3A46494645
:100900006DB22046FFF792FD6B1C0AD07F2D18D0E8
:100910006B1C5BB284F84530012086F31188BDE87A
:10092000F883636A002BF7D004F1240001F0FEFA8B
:100930000028F1D0B8F1000FEED00120C8F8000077
:10094000C0E74FF0500383F31188BFF36F8FBFF3FD
:100950004F8FFEE770B3036C70B5044643B14FF0A0
:10096000500383F31188BFF36F8FBFF34F8FFEE700
:1009700003680D463BB302F04BFCEFF311864FF0DA
:10098000500383F31188BFF36F8FBFF34F8FA36BB7
:10099000E26B9A4223D994F845200133FF2AA363DE
:1009A00053B220D07F2B2CD001335BB284F845307A
:1009B000012015E04FF0500383F31188BFF36F8FD0
:1009C000BFF34F8FFEE78368002BD4D04FF0500366
:1009D00083F31188BFF36F8FBFF34F8FFEE70020C3
:1009E00086F3118870BD636A002BE1D004F1240006
:1009F00001F09CFA0028DBD0002DD9D0012028601E
:100A0000EEE74FF0500383F31188BFF36F8FBFF30E
:100A10004F8FFEE72DE9F04385B00192002871D099
:100A20000E460446002954D001F060FC002844D052
:100A300002F00AFBA56B002D40F08380019B002B88
:100A400035D002A801F00CFBDFF82C912F4604F101
:100A5000240802F01BFB01F009F802F0F5FA94F803
:100A60004430FF2B08BF84F8447094F84530FF2BC6
:100A700008BF84F8457002F009FB01A902A801F043
:100A8000F9FA002831D102F0DFFAA36B002B42D033
:100A900002F0FCFA2046FFF719FD00F0F1FF02F02A
:100AA000D3FAA56B002D4CD1019B002BD1D102F0C4
:100AB000EDFA002005B0BDE8F083019B002BB7D014
:100AC0004FF0500383F31188BFF36F8FBFF34F8F45
:100AD000FEE7036C002BA7D04FF0500383F311887F
:100AE000BFF36F8FBFF34F8FFEE72046FFF7EEFC9B
:100AF00000F0C6FF02F0A8FAA36B002BD7D002F0DB
:100B0000C5FACCE74FF0500383F31188BFF36F8F22
:100B1000BFF34F8FFEE702F0B9FA0199404601F0AA
:100B20009FF92046FFF7D2FC00F0AAFF0028B6D1BB
:100B30004FF08053C9F80030BFF34F8FBFF36F8F72
:100B4000ADE731462046013DFFF7AEFCA5632369C2
:100B50001BB902F09BFA0120ACE704F1100001F090
:100B6000E5F90028F5D0044B4FF080521A60BFF32E
:100B70004F8FBFF36F8FECE704ED00E02DE9F041FC
:100B800084B0019158B1056C04468DB14FF050030B
:100B900083F31188BFF36F8FBFF34F8FFEE74FF0E2
:100BA000500383F31188BFF36F8FBFF34F8FFEE7BE
:100BB00001F09CFB064600285CD02E4602F044FA69
:100BC000A36BDFF86C81002783BB019B002B00F037
:100BD000A280002E42D002F059FA00F047FF02F046
:100BE00033FA94F84430FF2B08BF84F8447094F82B
:100BF0004530FF2B08BF84F8457002F047FA01A981
:100C000002A801F037FAE8B902F01EFAA36B002B34
:100C10003DD002F03BFA2046FFF758FC00F030FFD1
:100C200002F012FAA36B0126002BCED02268013B02
:100C3000A363002A5CD02369002B4AD102F026FA74
:100C4000012513E02046FFF741FC00F019FF02F0F8
:100C5000FBF9A36B33B102F019FAE1E702A801F046
:100C6000FFF9B8E702F012FA002D45D1284604B08A
:100C7000BDE8F081019B43B14FF0500383F311882D
:100C8000BFF36F8FBFF34F8FFEE7054696E702F085
:100C9000FDF92368A3B1019904F1240001F0E0F803
:100CA0002046FFF713FC00F0EBFE0028B8D14FF010
:100CB0008053C8F80030BFF34F8FBFF36F8FAFE79B
:100CC00002F0C2F9A06801F021FB054602F0DEF94E
:100CD000E1E704F1100001F029F90028AED0144B2F
:100CE0004FF080521A60BFF34F8FBFF36F8FA5E7AD
:100CF00001F01CFCA0609EE702F0A6F9616A19B140
:100D0000236B1968C1F10501A06801F0A3FB002560
:100D100002F0BCF9AAE745B14FF0500383F3118804
:100D2000BFF36F8FBFF34F8FFEE702F0AFF99DE780
:100D300004ED00E0A8B170B586680D46044601F0E8
:100D4000CFFA864208D029462046FFF717FF10B198
:100D5000E3680133E36070BDE3680133E3600120C1
:100D600070BD4FF0500383F31188BFF36F8FBFF353
:100D70004F8FFEE72DE9F04184B00192002870D03A
:100D80000E460446002953D001F0B0FA002843D0A3
:100D900002F05AF9A56B002D40F08280019B002BD8
:100DA00034D002A801F05CF9DFF82C8104F12407AB
:100DB00002F06CF900F05AFE02F046F994F8443063
:100DC000FF2B08BF84F8445094F84530FF2B08BF30
:100DD00084F8455002F05AF901A902A801F04AF935
:100DE000002831D102F030F9A36B002B42D002F081
:100DF0004DF92046FFF76AFB00F042FE02F024F9AD
:100E0000A36B002B4CD1019B002BD1D102F03EF9FA
:100E1000002004B0BDE8F081019B002BB8D04FF05A
:100E2000500383F31188BFF36F8FBFF34F8FFEE73B
:100E3000036C002BA8D04FF0500383F31188BFF34D
:100E40006F8FBFF34F8FFEE72046FFF73FFB00F0A9
:100E500017FE02F0F9F8A36B002BD7D002F016F9B9
:100E6000CCE74FF0500383F31188BFF36F8FBFF3CC
:100E70004F8FFEE702F00AF90199384600F0F0FFC3
:100E80002046FFF723FB00F0FBFD0028B6D14FF012
:100E90008053C8F80030BFF34F8FBFF36F8FADE7BB
:100EA00031462046E568FFF7FFFA636AE5601BB943
:100EB00002F0ECF80120ACE704F1240001F036F870
:100EC0000028F5D0044B4FF080521A60BFF34F8FCB
:100ED000BFF36F8FECE700BF04ED00E02DE9F843AE
:100EE00010B389469046054691B102F091F9EFF3AF
:100EF00011874FF0500383F31188BFF36F8FBFF357
:100F00004F8FAC6BCCB9204687F31188BDE8F883CE
:100F1000036C002BE9D04FF0500383F31188BFF32B
:100F20006F8FBFF34F8FFEE74FF0500383F31188AD
:100F3000BFF36F8FBFF34F8FFEE795F844604946CC
:100F4000284676B2FFF7B0FA013C731CAC630AD0B6
:100F50007F2E18D0731C5BB285F84430012087F3D4
:100F60001188BDE8F8832B69002BF7D005F110003C
:100F700000F0DCFF0028F1D0B8F1000FEED0012026
:100F8000C8F80000C0E74FF0500383F31188BFF3A7
:100F90006F8FBFF34F8FFEE7C8B170B5036C0D467E
:100FA000044649B1E3B94FF0500383F31188BFF30E
:100FB0006F8FBFF34F8FFEE7002BF4D04FF050033D
:100FC00083F31188BFF36F8FBFF34F8FFEE74FF0AE
:100FD000500383F31188BFF36F8FBFF34F8FFEE78A
:100FE00002F016F9EFF311864FF0500383F31188E6
:100FF000BFF36F8FBFF34F8FA06B10B986F31188CB
:1010000070BD29462046E568FFF74EFAE5600120ED
:10101000F4E700BF40B110B5044602F015F8A46B28
:1010200002F034F8204610BD4FF0500383F31188CE
:10103000BFF36F8FBFF34F8FFEE700BF50B110B506
:10104000044602F001F8A36BE46BE41A02F01EF808
:10105000204610BD4FF0500383F31188BFF36F8F0C
:10106000BFF34F8FFEE700BF08B1806B70474FF0B2
:10107000500383F31188BFF36F8FBFF34F8FFEE7E9
:1010800070B110B40F49002351F83340A0424FEA29
:10109000C3020ED00133082BF6D110BC02F096B972
:1010A0004FF0500383F31188BFF36F8FBFF34F8F5F
:1010B000FEE705490A44002441F83340546010BC5F
:1010C00002F084B9903401208C340120806C704788
:1010D0008164704790F84C00704700BF20B1806B6E
:1010E000B0FA80F0400970474FF0500383F3118845
:1010F000BFF36F8FBFF34F8FFEE700BF30B1826B3E
:10110000C06B801AB0FA80F0400970474FF050036E
:1011100083F31188BFF36F8FBFF34F8FFEE700BFDC
:1011200030B4084A002352F8334002EBC30524B11F
:101130000133082BF7D130BC7047686042F8331098
:1011400030BC70478C3401200749002351F833200C
:10115000824204D00133082BF8D100207047034AA3
:1011600052F83300704700BF903401208C340120C6
:1011700010B40A49002351F8332082424FEAC304D5
:1011800004D00133082BF6D110BC7047044A144434
:101190000021616042F8331010BC70479034012088
:1011A0008C34012070B504460E46154601F04CFF04
:1011B00094F84430FF2B04BF002384F8443094F8A3
:1011C0004530FF2B04BF002384F8453001F05EFF5B
:1011D000A36B23B12046BDE87040FFF777B904F157
:1011E00024002A46314600F081FE2046BDE87040CA
:1011F000FFF76CB980B5134C134F4FF0805614E0D5
:1012000001F022FF2369DD68281DFFF7FDF8A369BF
:10121000013BA3612368013B236001F037FF286B8A
:1012200002F0D4F8284602F0D1F82368002BE7D169
:10123000E369012BF9D93E60BFF34F8FBFF36F8F86
:10124000F3E700BFA400002004ED00E068B10B4903
:1012500042698A4201D000207047806A143290426D
:10126000F9D0B0FA80F0400970474FF0500383F393
:101270001188BFF36F8FBFF34F8FFEE7240100206B
:10128000034BD3F8A820D2681268C3F8AC2070478B
:10129000A4000020F8B51F4CD4F8B060D4F8B430E6
:1012A0000546181D0F46FFF7AFF850B9D4F8B42023
:1012B000D4F8B830D16A01228A4023EA0203C4F884
:1012C000B8306B1C1BD0D4F8B43075195D6008D3EE
:1012D000D4F8BC00D4F8B410BDE8F8400431FFF7EE
:1012E0007BB8D4F8A800D4F8B4100431FFF774F830
:1012F000D4F8AC30AB4288BFC4F8AC50F8BD002F76
:10130000E1D0D4F8B4100448BDE8F8400431FFF748
:1013100055B800BFA4000020240100202DE9F047AB
:10132000434CD4F8B0600136C4F8B06006BBD4F8C2
:10133000A8301B6843B14FF0500383F31188BFF30B
:101340006F8FBFF34F8FFEE7D4F8A830D4F8BC20DE
:10135000C4F8A820C4F8BC30D4F8C0300133C4F8B5
:10136000C030D4F8A8301B68002B53D0FFF788FF9B
:10137000D4F8AC309E4239D3D4F8A8301D68002D83
:1013800051D0DFF8B08000254FF0010921E0FFF7D0
:101390003BF8BB6A07F118000BB1FFF735F8F86AA4
:1013A000D4F8B82009FA00F300EB8000134351464B
:1013B00008EB8000C4F8B830FFF700F8D4F8B42088
:1013C000D4F8A830F96AD26A1B68914228BF012577
:1013D0004BB3D4F8A830DB68DF687B6807F1040AF8
:1013E0009E425046D3D2C4F8AC3000E00025D4F879
:1013F000B430DB6A03EB830304EB8303DA69D4F8CC
:10140000C430022A28BF0125002B0CBF284601202A
:10141000BDE8F0874FF0FF33C4F8AC30D4F8AC30FF
:101420009E42E3D3A8E74FF0FF33C4F8AC30DEE7C9
:10143000A4000020C00000202DE9F84F960080464F
:1014400030460D46994601F03BFF002800F08380AE
:101450000746582001F034FF0446002800F08A8037
:10146000076332463846A52104F07EFED4F830A04A
:10147000002D00F088806F1E04F13303093517F842
:10148000012F03F8012F3A780AB1AF42F7D10023B8
:1014900084F83D300A9D042D28BF04254FF0000B31
:1014A000271DC4E9125BE5623846043EFEF782FF61
:1014B000C5F1050504F118005644FEF77BFFA56150
:1014C00026F00700C4F850B084F854B02461646278
:1014D0004A46414601F07CFD0B9B206003B11C6035
:1014E000454D01F0B1FDAB690133AB61D5F8B430C6
:1014F000002B4BD0D5F8F0308BB3E06A05F11C0817
:10150000D5F8F430D5F8B8C00126334406FA00F215
:1015100000EB800042EA0C022364394608EB8000AD
:10152000C5F8F430C5F8B820FEF748FF01F0AEFD6D
:10153000D5F8F03023B3D5F8B420E36AD26A9A42E2
:101540001ED22E4B4FF080521A60BFF34F8FBFF365
:101550006F8F304601E04FF0FF30BDE8F88FD5F8CF
:10156000B430E06ADB6A834298BFC5F8B44005F145
:101570001C08C5E7384601F029FF4FF0FF30ECE7C3
:101580003046BDE8F88F84F8345083E7C5F8B4409E
:10159000AB69012BB1D105F11C084046FEF7FEFEF8
:1015A00005F13000FEF7FAFE05F14400FEF7F6FE05
:1015B00005F15800FEF7F2FE05F1C80905F16C00CF
:1015C000FEF7ECFE05F1DC064846FEF7E7FE304686
:1015D000FEF7E4FE05F19400FEF7E0FE281DFEF79D
:1015E000DDFE05F18000FEF7D9FEC5F8A890E06A9F
:1015F000C5F8BC6084E700BFA400002004ED00E053
:1016000070B50546334C01F01FFD002D49D02E1D4D
:101610003046FEF7F9FE30B9E86A00EB800304EBD0
:101620008303DB6963B3AB6A1BB105F11800FEF7F6
:10163000EBFED4F8F430D4F8B4200133AA42C4F855
:10164000F43026D0A369286B013BA36101F0BEFEF4
:10165000284601F0BBFED4F8A8301B685BB1FFF749
:101660000FFE01F013FDD4F8F0301BB1D4F8B43004
:10167000AB4219D070BD4FF0FF33C4F8AC30F0E787
:10168000D4F8B8300122824023EA0203C4F8B8300B
:10169000C9E711483146FEF791FE23680133236004
:1016A000DFE7D4F8B450B2E7D4F8F83043B14FF0E4
:1016B000500383F31188BFF36F8FBFF34F8FFEE7A3
:1016C000064B4FF080521A60BFF34F8FBFF36F8FFE
:1016D00070BD00BFA4000020A800002004ED00E0C1
:1016E00020B32DE9F0411D4CD4F8B43083420546B7
:1016F00019D001F0A9FCD4F8A8806E69D4F8BC70A8
:1017000001F0C4FC46451CD0BE421AD004F180034F
:101710009E4214D00434A64216D0002E0CBF0420E2
:101720000120BDE8F0810020BDE8F0814FF05003BA
:1017300083F31188BFF36F8FBFF34F8FFEE7AB6A60
:1017400023B10220BDE8F0810420EDE795F8543084
:10175000012B0CBF02200320E6E700BFA4000020FD
:1017600010B5044601F070FC24B1E46A01F08EFC6F
:10177000204610BD034BD3F8B440E46A01F086FC68
:10178000204610BDA400002010B5044601F040FD25
:10179000EFF311834FF0500282F31188BFF36F8F84
:1017A000BFF34F8F1CB1E06A83F3118810BD034A69
:1017B000D2F8B440E06A83F3118810BDA400002081
:1017C00004292DE9F84308D94FF0500383F3118819
:1017D000BFF36F8FBFF34F8FFEE704460D4601F056
:1017E00033FC002C55D0A36C9D424ED02C4E0BD90F
:1017F000D6F8B420A24250D0D6F8B420D76AAF426F
:101800008CBF0027012705E0D6F8B4703F1BB7FA5C
:1018100087F77F09D4F82C80A5644345A36908BFE6
:10182000E562002BA4BFC5F10505A5611D4D6269E8
:1018300008EB880305EB83039A421DD104F10409E8
:101840004846FEF7E1FD40B9D6F8B830012202FA69
:1018500008F823EA0803C6F8B830E06AD6F8B820DA
:101860000123834000EB80001343494605EB8000D1
:10187000C6F8B830FEF7A2FD3FB10B4B4FF08052D7
:101880001A60BFF34F8FBFF36F8FBDE8F84301F0CD
:10189000FDBB034BD3F8B440A5E70027BAE700BF70
:1018A000A4000020C000002004ED00E0F8B580B1E5
:1018B0001E4DD5F8B4308342044609D001F0C4FB74
:1018C0002046FFF7C3FC68B9BDE8F84001F0DEBB75
:1018D000F8BD4FF0500383F31188BFF36F8FBFF350
:1018E0004F8FFEE7261D3046FEF78EFDE06AD5F8E5
:1018F000B870012305F11C02834000EB80003B43DC
:1019000002EB80003146C5F8B830FEF757FDD5F838
:10191000B430E26ADB6A9A42D6D3054B4FF080526C
:101920001A60BFF34F8FBFF36F8FCDE7A400002085
:1019300004ED00E000283AD02DE9F041054601F021
:1019400067FCEFF311874FF0500383F31188BFF367
:101950006F8FBFF34F8F2846FFF778FC044608B31C
:101960001B4ED6F8F8305BBBD6F8B430EC6ADB6AB5
:1019700005F104089C42404634BF00240124FEF7D0
:1019800043FDE86AD6F8B8500123834006F11C02F3
:1019900000EB80002B43414602EB8000C6F8B830D4
:1019A000FEF70CFD87F311882046BDE8F0814FF06B
:1019B000500383F31188BFF36F8FBFF34F8FFEE7A0
:1019C00005F1180106F19400FEF7F8FC0024E9E7A0
:1019D000A400002030B51A4C1A491B4883B004F10A
:1019E000FC030025CDE9005382222B46FFF724FD9E
:1019F000012803D001301AD003B030BD01F04CF8FB
:101A00000128F7D14FF0500383F31188BFF36F8F94
:101A1000BFF34F8F4FF0FF33C4F8AC30C4F8F00081
:101A2000C4F8B05003B0BDE8304001F097BB4FF0B0
:101A3000500383F31188BFF36F8FBFF34F8FFEE71F
:101A4000A400002008760008F51100084FF05003AC
:101A500083F31188BFF36F8FBFF34F8F024B0022C8
:101A6000C3F8F02001F0DEBAA4000020034AD2F847
:101A7000F8300133C2F8F830704700BFA4000020EE
:101A80002DE9F0413E4CD4F8F83043B94FF0500303
:101A900083F31188BFF36F8FBFF34F8FFEE701F021
:101AA000D3FAD4F8F830013BC4F8F830D4F8F83061
:101AB000002B52D1A369002B4FD0D4F894308BB3B4
:101AC00004F11C070126D4F8A030DD6805F10408F4
:101AD00005F11800FEF798FC4046FEF795FCE86A11
:101AE000D4F8B82006FA00F300EB80001343414617
:101AF00007EB8000C4F8B830FEF760FCD4F8B430CF
:101B0000EA6ADB6A9A4228BFC4F8C460D4F8943009
:101B1000002BD8D1D4F8A8301B6823BB4FF0FF337B
:101B2000C4F8AC30D4F80051A5B1012606E0FFF7A7
:101B3000F5FB08B1C4F8C460013D09D0D4F8F83011
:101B4000002BF4D0D4F800310133C4F80031F3E7AE
:101B5000C4F80051D4F8C43043B9002401F096FA17
:101B60002046BDE8F081FFF78BFBDBE7054B4FF02C
:101B700080521A60BFF34F8FBFF36F8F0124EDE7E0
:101B8000A400002004ED00E060B30B4641B94FF023
:101B9000500383F31188BFF36F8FBFF34F8FFEE7BE
:101BA00002461D48D0F8F81029BBD0F8F8100131D2
:101BB00010B5C0F8F8101168D0F8B000CB182CBFE1
:101BC00001240024814213601ED9F4B9FFF758FFA5
:101BD00038B9124B4FF080521A60BFF34F8FBFF3EA
:101BE0006F8F10BD4FF0500383F31188BFF36F8FD9
:101BF000BFF34F8FFEE74FF0500383F31188BFF31D
:101C00006F8FBFF34F8FFEE70CB99842DED2181AE0
:101C10000021FFF73FFBD9E7A400002004ED00E01E
:101C200008B5B0B10F4BD3F8F81041B14FF05003E5
:101C300083F31188BFF36F8FBFF34F8FFEE7D3F8A5
:101C4000F8200132C3F8F820FFF724FBFFF718FF54
:101C500038B9054B4FF080521A60BFF34F8FBFF376
:101C60006F8F08BDA400002004ED00E0014BD3F805
:101C7000B0007047A400002008B501F0C9FA024B7B
:101C8000D3F8B00008BD00BFA4000020014B986944
:101C9000704700BFA400002008B134307047074BE4
:101CA000D3F8B4000028F8D14FF0500383F3118823
:101CB000BFF36F8FBFF34F8FFEE700BFA40000207C
:101CC0000C4BD3F8F82042B14FF0500383F3118846
:101CD000BFF36F8FBFF34F8FFEE7D3F8F8200132C9
:101CE000C3F8F820D3F800210244C3F80021FFF71D
:101CF000C7BE00BFA4000020064BD3F8F8200AB9E5
:101D0000FFF70CBBD3F800210132C3F800210020FB
:101D1000704700BFA4000020164AD2F8F8301BB16B
:101D20000123C2F8C4307047C2F8C430D2F8B830CA
:101D3000B3FA83F3DBB2C3F11F0303EB830302EBBC
:101D400083009B00C16941B94FF0500383F31188B0
:101D5000BFF36F8FBFF34F8FFEE7016A13444968EB
:101D600001622433994204BF49680162CB68C2F81A
:101D7000B4307047A400002070B50446354D01F022
:101D800063F9002C49D0261D3046FEF73DFB30B9E3
:101D9000E06A00EB800305EB8303DB694BB3A36AC6
:101DA0001BB104F11800FEF72FFB2B483146FEF75C
:101DB00005FB94F85430012B04BF002384F8543001
:101DC00001F064F9D5F8F030E3B9D5F8B430A342A6
:101DD00000D070BDD5F8F0303BB3D5F8F83063B320
:101DE0004FF0500383F31188BFF36F8FBFF34F8F12
:101DF000FEE7D5F8B8300122824023EA0203C5F895
:101E0000B830CCE701F020F9D5F8A8301B683BB119
:101E1000FFF736FA01F03AF9D7E7D5F8B440B2E760
:101E20004FF0FF33C5F8AC30F4E7D5F88010AA695D
:101E300091420BD1C5F8B43070BD084B4FF08052C1
:101E40001A60BFF34F8FBFF36F8F70BDBDE8704056
:101E5000FFF762BFA40000202401002004ED00E091
:101E600068B110B50A4B0C46D3F8B4101831FEF720
:101E7000B3FA20460121BDE81040FFF70BBA4FF03E
:101E8000500383F31188BFF36F8FBFF34F8FFEE7CB
:101E9000A400002038B570B11446134A0B46D2F89E
:101EA000F81089B94FF0500383F31188BFF36F8F97
:101EB000BFF34F8FFEE74FF0500383F31188BFF35A
:101EC0006F8FBFF34F8FFEE7D2F8B450D2F8B41043
:101ED00043F00043AB611831FEF770FA2046012150
:101EE000BDE83840FFF7D6B9A400002038B590B15E
:101EF0000D4B0D46D3F8B41014461831FEF75EFAB8
:101F0000002C08BF2846214618BF4FF0FF30BDE81F
:101F10003840FFF7BFB94FF0500383F31188BFF388
:101F20006F8FBFF34F8FFEE7A4000020F8B5C368A2
:101F3000DD6875B31B4C05F118063046FEF764FAF0
:101F4000D4F8F8307BB1314604F19400FEF736FA4C
:101F5000D4F8B430EA6ADB6A9A4286BF0120C4F83A
:101F6000C4000020F8BD2E1D3046FEF74DFAE86A89
:101F7000D4F8B8700123834004F11C0200EB800008
:101F80003B43314602EB8000C4F8B830FEF716FA46
:101F9000DEE74FF0500383F31188BFF36F8FBFF379
:101FA0004F8FFEE7A4000020F8B51E4CD4F8F8507F
:101FB00045B94FF0500383F31188BFF36F8FBFF320
:101FC0004F8FFEE7C56841F0004303600DB32F1D3E
:101FD000FEF71AFA3846FEF717FAE86AD4F8B8C0DE
:101FE000012604F11C0206FA00F300EB800043EA2C
:101FF0000C0302EB80003946C4F8B830FEF7DEF976
:10200000D4F8B430EA6ADB6A9A4288BFC4F8C46084
:10201000F8BD4FF0500383F31188BFF36F8FBFF308
:102020004F8FFEE7A400002070B110B5044601F008
:102030000BF80A4BD3F8C020D3F8B030C4E9002322
:10204000BDE8104001F022B84FF0500383F311882F
:10205000BFF36F8FBFF34F8FFEE700BFA4000020D8
:10206000034BD3F8C020D3F8B030C0E90023704749
:10207000A4000020F8B510B30D46B9B1044600F035
:10208000E3FF2B681C4A591CD2F8B0002ED0D4E9CB
:102090000071D2F8C060B7421AD0814218D800232C
:1020A0002B60012500F0F2FF2846F8BD4FF05003E9
:1020B00083F31188BFF36F8FBFF34F8FFEE74FF0AD
:1020C000500383F31188BFF36F8FBFF34F8FFEE789
:1020D000461AB342E3D91B1A0B44D2F8C010D2F807
:1020E000B0202B60C4E900120025DBE7002500F0DA
:1020F000CDFF2846F8BD00BFA4000020024B0122FE
:10210000C3F8C420704700BFA400002000B1406C99
:10211000704700BF00B14164704700BF70B50C4606
:10212000164658B3054605F13401EA6A6160296B29
:1021300022612A6CE161A96CA260052B4FF00002BC
:10214000C4E9051225601FD01949D1F8B400A8428E
:1021500018D0032B23731CD076B12B6B1A78A52AC9
:1021600023D1C3F10100C11813F8012FA52AFAD019
:10217000C1F38F01218470BD268470BD0C4AD2F852
:10218000B450D0E72273E7E72846FFF7A9FA207397
:10219000E2E7D1F8F8300133C1F8F830AB6A0BB19F
:1021A00002232373FFF76CFCD6E70021E2E700BFB0
:1021B000A40000204B685B682DE9F04701F1080896
:1021C000434508BFCB680E46D3F80CA091460546A0
:1021D000002700E073685C687460A04504BFD8F80D
:1021E00004407460E468294601224B4620461744A7
:1021F000FFF794FFA24505F12405EBD13846BDE871
:10220000F08700BF2DE9F843324ED6F8F83001339D
:10221000C6F8F830B3698B4255D800248146904601
:10222000A44606F16C070525013D05EB850306EB89
:1022300083030CEB0400DB693946012209EB8000C3
:1022400043B1FFF7B7FF044404EBC40009EB80007F
:102250004FEAC40C143F002DE6D1D6F8A8100B6845
:102260003BB10222FFF7A6FF044404EBC40009EBD4
:102270008000D6F8BC100B683BB10222FFF79AFF32
:10228000044404EBC40009EB8000736843B11249B5
:102290000422FFF78FFF044404EBC40009EB800025
:1022A000D6F8803023B10D490322FFF783FF0444A1
:1022B000B8F1000F02D00023C8F80030FFF7E0FBB0
:1022C0002046BDE8F8830024FFF7DAFB2046BDE88E
:1022D000F88300BFA4000020A800002024010020F3
:1022E000014BD3F8B4007047A4000020064BD3F88C
:1022F000F02032B1D3F8F830002B0CBF02200020C0
:1023000070470120704700BFA4000020F8B50446C4
:10231000E0B1254DC36AD5F8B420D26A934216D2F3
:102320008269002A05DBD5F8B420D26AC2F1050221
:1023300082611E4E626903EB830306EB83039A42BC
:102340000ED0D5F8B430DB6AE3620120F8BDD5F8D1
:10235000B430806CDC6AA0422CBF00200120F8BDA4
:10236000271D3846FEF750F840B9E16AD5F8B83075
:1023700001228A4023EA0203C5F8B830D5F8B43008
:10238000D5F8B820D86AE062012404FA00F300EB23
:10239000800006EB800013433946C5F8B830FEF7DD
:1023A0000DF82046F8BD00BFA4000020C0000020AA
:1023B000D0B1F8B5254ED6F8B4308342044608D0E3
:1023C0004FF0500383F31188BFF36F8FBFF34F8F2C
:1023D000FEE7DB6C53B1C16A826C013B9142C3647E
:1023E00000D063B10020F8BD002070474FF05003CB
:1023F00083F31188BFF36F8FBFF34F8FFEE7071D85
:102400003846FEF701F840B9E16AD6F8B830012243
:102410008A4023EA0203C6F8B830A36CD6F8B8C0E5
:102420000B48E362012505FA03F23946C3F10507BB
:1024300003EB830342EA0C0200EB8300A761C6F8BA
:10244000B820FDF7BBFF2846F8BD00BFA400002060
:10245000C0000020B8B1F8B50B46C16C044649B1C4
:10246000806CE26A834238BF03469A4201D0012958
:102470000AD0F8BD4FF0500383F31188BFF36F8F7C
:10248000BFF34F8FFEE770471E4DD5F8B410A14241
:1024900025D0A1691C4EE3620029A8BFC3F1050342
:1024A0006169A8BFA36102EB820206EB8203994235
:1024B000DFD1271D3846FDF7A7FFC8B1E06A012329
:1024C0008340D5F8B82000EB8000134306EB800072
:1024D0003946C5F8B830BDE8F840FDF76FBF4FF09A
:1024E000500383F31188BFF36F8FBFF34F8FFEE765
:1024F000E06AD5F8B8200123834022EA0302C5F838
:10250000B820DEE7A4000020C0000020064AD2F870
:10251000B410D2F8B430D2F8B420DB6A8869C3F1C1
:1025200005039361704700BFA4000020054BD3F85A
:10253000B42022B1D3F8B410CA6C0132CA64D3F803
:10254000B4007047A400002040B14FF0500383F363
:102550001188BFF36F8FBFF34F8FFEE770B5194C33
:102560000E46154600F070FDD4F8B4301B6D83B9EB
:10257000D4F8B430012183F8541055B12846FEF741
:1025800089FE114B4FF080521A60BFF34F8FBFF39B
:102590006F8F00F07BFD00F057FDD4F8B4301D6D57
:1025A00025B1D4F8B43056B100221A65D4F8B4304D
:1025B000002283F8542000F069FD284670BD6A1E91
:1025C0001A65F3E7A400002004ED00E02DE9F041D6
:1025D000DDF8188040B14FF0500383F31188BFF34A
:1025E0006F8FBFF34F8FFEE7234C1D460F461646F5
:1025F00000F02AFDD4F8B43093F85430022B0DD0FB
:10260000D4F8B420136D23EA07031365D4F8B4306B
:10261000012183F85410B8F1000F19D100F036FDF4
:1026200000F012FD1DB1D4F8B4301B6D2B60D4F84E
:10263000B43093F85430022B16D00025D4F8B430BF
:10264000002283F8542000F021FD2846BDE8F081E7
:102650004046FEF71FFE094B4FF080521A60BFF351
:102660004F8FBFF36F8FD9E7D4F8B420136D23EAEF
:10267000060313650125E1E7A400002004ED00E056
:10268000F8B5069D41B14FF0500383F31188BFF3B5
:102690006F8FBFF34F8FFEE7044698B116461F4673
:1026A00000F0D2FC0DB1236D2B6094F8545002233E
:1026B000EDB284F85430042F52D8DFE807F00F0C45
:1026C00049384D004FF0500383F31188BFF36F8FEB
:1026D000BFF34F8FFEE7236D1E432665012D04D007
:1026E000012500F0D3FC2846F8BD271D234E3846AF
:1026F000FDF78AFEE06AD6F8B8C005FA00F306F1E5
:102700001C0200EB800043EA0C03394602EB800018
:10271000C6F8B830FDF752FEA36A53B14FF050032C
:1027200083F31188BFF36F8FBFF34F8FFEE72665EA
:10273000D4E7D6F8B430E26ADB6A9A42D0D9104BBB
:102740004FF080521A60BFF34F8FBFF36F8FC8E70F
:10275000236D01332365C1E7022DE8D10025C0E7D1
:10276000064BD3F8B030002BB8D04FF0500383F3B2
:102770001188BFF36F8FBFF34F8FFEE7A4000020D7
:1027800004ED00E02DE9F843DDE9085848B189B1CE
:102790004FF0500383F31188BFF36F8FBFF34F8F58
:1027A000FEE74FF0500383F31188BFF36F8FBFF341
:1027B0004F8FFEE716469946044600F029FDEFF3D9
:1027C00011874FF0500383F31188BFF36F8FBFF36E
:1027D0004F8F0DB1236D2B6094F854500223EDB24E
:1027E00084F85430B9F1040F55D8DFE809F0044CEF
:1027F000500316002665012D04D0012087F31188AF
:10280000BDE8F883A36A63B14FF0500383F31188E6
:10281000BFF36F8FBFF34F8FFEE7022DEAD1002089
:10282000ECE7244ED6F8F83033BB04F104094846EF
:10283000FDF7EAFDE06AD6F8B8C005FA00F306F144
:102840001C0200EB800043EA0C03494602EB8000C7
:10285000C6F8B830FDF7B2FDD6F8B430E26ADB6AEC
:102860009A42CAD9B8F1000F02D00123C8F800304B
:102870000120C6F8C400C1E704F1180106F1940074
:10288000FDF79CFDE8E7236D1E432665B3E7236D46
:1028900001332365AFE7074BD3F8B030002BAAD044
:1028A0004FF0500383F31188BFF36F8FBFF34F8F47
:1028B000FEE700BFA40000202DE9F84348B189B12C
:1028C0004FF0500383F31188BFF36F8FBFF34F8F27
:1028D000FEE74FF0500383F31188BFF36F8FBFF310
:1028E0004F8FFEE71746044600F092FCEFF3118885
:1028F0004FF0500383F31188BFF36F8FBFF34F8FF7
:10290000022394F8542084F85430236D012A03F1F3
:1029100001032365D6B203D088F31188BDE8F8839C
:10292000A36A43B14FF0500383F31188BFF36F8F55
:10293000BFF34F8FFEE7174DD5F8F8301BBB04F1FE
:1029400004094846FDF760FDE06AD5F8B8C006FA0C
:1029500000F305F11C0200EB800043EA0C0349463A
:1029600002EB8000C5F8B830FDF728FDD5F8B4308B
:10297000E26ADB6A9A42CFD90FB101233B6001239F
:10298000C5F8C430C8E704F1180105F19400FDF75B
:1029900015FDEBE7A400002041B14FF0500383F395
:1029A0001188BFF36F8FBFF34F8FFEE710B504465A
:1029B00070B100F049FB94F85430022B05BF00239E
:1029C00084F854300024012400F060FB204610BD40
:1029D000014BD3F8B440ECE7A400002070B50E46DC
:1029E000154668B1044600F02FFB04EB86010C6D20
:1029F0000B6D23EA05030B6500F048FB204670BD14
:102A0000014BD3F8B440EEE7A4000020F8B5104C19
:102A100000F01AFB25681DB1BDE8F84000F036BB98
:102A2000271D384604F11806FDF7B8FC3046FDF7BF
:102A3000B5FC2A460C210A20C4E90B76FDF7D6FD29
:102A400020600028E8D00349FEF76AFBE4E700BFF6
:102A5000A801002010760008914208B5006141608D
:102A600005D88169D21A8A420CD3012008BD9A4246
:102A700001D29942F9D2074B011DD86AFDF7ACFC8F
:102A8000002008BD034B011D186BFDF7A5FC0020BD
:102A900008BD00BFA801002000B583B0FFF7B6FF56
:102AA0000D4B1A685AB134330222CDE900230B4989
:102AB0000B4800234FF48272FEF7BEFC40B94FF082
:102AC000500383F31188BFF36F8FBFF34F8FFEE77F
:102AD00003B05DF804FB00BFA801002018760008D1
:102AE000292C00082DE9F04107462C208846154680
:102AF0001E4600F0E5FB0446B0B1002380F8283004
:102B0000B8F1000F13D0FFF781FF069B2760C4E9DF
:102B100006862362201DFDF74DFC2DB194F8283068
:102B200043F0040384F828302046BDE8F0814FF0DC
:102B3000500383F31188BFF36F8FBFF34F8FFEE70E
:102B4000C0B130B5164C15461A460346206885B00C
:102B500070B10529CDE90115039314DCFFF7C6FB1D
:102B6000022816D0002320681A4601A9FDF78EFD21
:102B700005B030BD4FF0500383F31188BFF36F8F62
:102B8000BFF34F8FFEE7002301A9FDF771FE05B0EB
:102B900030BD2068089A002301A9FDF777FDE7E71B
:102BA000A80100202DE9F0411E4E82B04FF0000830
:102BB0000DE0DB68DC681F68251D2846FDF724FC56
:102BC000236A2046984794F828305B0709D4F36AB3
:102BD0001A68002AEDD1326BC6E90B2302B0BDE8BA
:102BE000F081A26907EB020C002367453A461946BB
:102BF000204607D2F06AC4F804C024612946FDF7D4
:102C0000EBFBE4E7CDF80080FFF79AFF0028DED168
:102C10004FF0500383F31188BFF36F8FBFF34F8FD3
:102C2000FEE700BFA80100202DE9F047774CDFF850
:102C3000E08186B04FF080574FF00009E36A1E68CC
:102C4000002E00F08A80DB681E68FEF70FFFFFF79A
:102C50000DF8A36B8342054600F28E808642A06386
:102C600040F2938000222068711BFEF79BFAFEF76A
:102C700007FF28B9C8F80070BFF34F8FBFF36F8FFD
:102C80002068002203A9FDF7C5FE0028D6D0039BCB
:102C9000002BF5DB059E736913B1301DFDF7B4FB06
:102CA000FEF7E4FFA36B984205466BD3039BA56335
:102CB000092BE5D8DFE803F0050505413048050597
:102CC000413096F82800049BB16940F0010086F875
:102CD00028002A4619443046FFF7BEFE0028CFD010
:102CE000336A3046984796F828305907C8D5049972
:102CF000B269CDF8009000230A4430461946FFF728
:102D00001FFF0028BCD14FF0500383F31188BFF39D
:102D10006F8FBFF34F8FFEE796F828300499B161AB
:102D200043F0010386F82830002966D02944304654
:102D30002B462A46FFF790FEA2E796F8283023F0AC
:102D4000010386F828309BE796F828309A0733D598
:102D500023F0010386F8283092E7FEF787FEFEF79E
:102D600085FFA36B9842054606D3236BA5631A68BB
:102D7000B2FA82F2520976E7FFF714FFA563FEF775
:102D80007FFE7DE7FFF70EFF90E7FEF779FEE36A2F
:102D9000DB68D3F80CA00AF10400FDF735FB9AF8C4
:102DA000283058070CD423F001038AF82830DAF8C9
:102DB00020305046984763E7304600F007FB5FE756
:102DC000DAF818102A46314433465046FFF744FEDD
:102DD0000028ECD00023CDF800903246194650462A
:102DE000FFF7AEFE0028E2D14FF0500383F31188C5
:102DF000BFF36F8FBFF34F8FFEE74FF0500383F3A6
:102E00001188BFF36F8FBFF34F8FFEE7A80100203B
:102E100004ED00E0064B586B00B170474FF05003D3
:102E200083F31188BFF36F8FBFF34F8FFEE700BFAF
:102E3000A801002008B1806970474FF0500383F368
:102E40001188BFF36F8FBFF34F8FFEE738B5B0B176
:102E500004460D4600F0F8F894F828303DB903F028
:102E6000FB0384F82830BDE8384000F00FB943F088
:102E7000040384F82830BDE8384000F007B94FF06B
:102E8000500383F31188BFF36F8FBFF34F8FFEE7BB
:102E900058B110B5044600F0D7F894F82840C4F3B0
:102EA000800400F0F3F8204610BD4FF0500383F388
:102EB0001188BFF36F8FBFF34F8FFEE708B14068F3
:102EC00070474FF0500383F31188BFF36F8FBFF348
:102ED0004F8FFEE708B1006870474FF0500383F34F
:102EE0001188BFF36F8FBFF34F8FFEE758B110B556
:102EF000044600F0A9F894F8284004F0010400F01A
:102F0000C5F8204610BD4FF0500383F31188BFF37E
:102F10006F8FBFF34F8FFEE740B110B5044600F04E
:102F200093F8E46900F0B2F8204610BD4FF050036A
:102F300083F31188BFF36F8FBFF34F8FFEE700BF9E
:102F400038B540B104460D4600F07EF8E561BDE8B5
:102F5000384000F09BB84FF0500383F31188BFF363
:102F60006F8FBFF34F8FFEE7406A70474162704733
:102F700006480068006880F3088862B661B6BFF34F
:102F80004F8FBFF36F8F00DF00BF000008ED00E040
:102F90000E4B1B6882B000220133019208D04FF023
:102FA000500383F31188BFF36F8FBFF34F8FFEE79A
:102FB0004FF0500383F31188BFF36F8FBFF34F8F30
:102FC000019B002BFCD002B0704700BF180000200E
:102FD00010B4084B40F8202C4FF0807421F0010110
:102FE00040F8044C40F8081C40F80C3C10BC403839
:102FF000704700BF912F0008094B19680868B0E8B6
:10300000F00F80F30988BFF36F8F4FF0000080F35B
:1030100011884EF00D0E7047AFF30080AFF30080C3
:1030200058010020074B1B68B3F57A7F08D04FF09A
:10303000500383F31188BFF36F8FBFF34F8FFEE709
:10304000704700BF180000204FF0500383F3118831
:10305000BFF36F8FBFF34F8F0A4A13680133012B01
:10306000136000D07047084B1B6813F0FF0FF9D0B6
:103070004FF0500383F31188BFF36F8FBFF34F8F6F
:10308000FEE700BF1800002004ED00E0084A1368C6
:1030900043B94FF0500383F31188BFF36F8FBFF331
:1030A0004F8FFEE7013B13600BB983F31188704724
:1030B00018000020EFF30980BFF36F8F104B1A68E0
:1030C00020E9F00F10602DE908404FF0500080F328
:1030D0001188FEF721FE4FF0000080F31188BDE853
:1030E000084019680868B0E8F00F80F30988BFF35A
:1030F0006F8F7047AFF30080AFF30080AFF30080B5
:103100005801002008B54FF0500383F31188BFF336
:103110006F8FBFF34F8FFEF7EFFD18B1034B4FF0EA
:1031200080521A60002383F3118808BD04ED00E08B
:1031300030B4064B064D0748074C002207211A60A1
:103140002A60046030BC1960704700BF10E000E0E6
:1031500018E000E014E000E03F90020010B5284BBA
:10316000284A197882B0FF20C9B2019118701B78E3
:10317000DBB28DF803309DF803309DF8031003F0A7
:10318000500307200C061370506048BF06210FD56E
:103190009DF803305B00DBB28DF803309DF803002F
:1031A00000060B4601F1FF31F2D4032B09D0536026
:1031B0004FF0500383F31188BFF36F8FBFF34F8F2E
:1031C000FEE701990E48104BC9B20170196841F42D
:1031D00070011960196841F0704119604FF4407333
:1031E0005360FFF7A5FF094B00241C60FFF7C0FEEA
:1031F000FEF792FDFFF7CCFE204602B010BD00BFE7
:1032000000E400E0E401002020ED00E018000020D0
:10321000EFF305820F2A11D8104B11495A680B6839
:1032200003F4E063934208D94FF0500383F311880D
:10323000BFF36F8FBFF34F8FFEE770470949074B0E
:10324000525C19789142E8D94FF0500383F311880A
:10325000BFF36F8FBFF34F8FFEE700BFE401002085
:103260000CED00E0F0E300E030B4144C23461A46C5
:103270001B688342FBD351685518A84209D04168A6
:103280004518AB420CD09042036030BC18BF1060B0
:1032900070474068014410464518AB425160F2D176
:1032A000A468A342EFD0D3E90034904221440360E4
:1032B000416030BC18BF1060704700BFEC010020B7
:1032C0002DE9F0413F4C0546FEF7D0FBA368002BEB
:1032D00037D0E66835422DD165B305F1080369079B
:1032E0001CBF23F00703083323B367699F4221D330
:1032F0002568344903E0286820B1294605466A68F4
:103300009A42F8D3A068A84214D02868D1F8008067
:103310000860D11A102908F1080835D9E8184207C1
:103320002DD04FF0500383F31188BFF36F8FBFF39D
:103330004F8FFEE7FEF7A4FB4FF000084046BDE8C4
:10334000F081214B580714BFDA1D1A4603F5963356
:10335000A3F1080323F0070318BF22F00702114668
:1033600000209A1A4FF00046C4E90010C4E9042274
:10337000C3E90000A360C1E90032E660AAE741604A
:103380006B60FFF771FF6A682169A369BF1A8F42FA
:1033900042EA06024FF0000103F101036A6029606E
:1033A00038BF27616761A361FEF76AFB18F0070F5A
:1033B000C4D04FF0500383F31188BFF36F8FBFF376
:1033C0004F8FFEE7EC0100200C020020E0B138B581
:1033D000194D50F8043CEA68134204460BD050F8EB
:1033E000081C91B14FF0500383F31188BFF36F8F26
:1033F000BFF34F8FFEE74FF0500383F31188BFF305
:103400006F8FBFF34F8FFEE7704723EA020340F848
:10341000043CFEF72BFB6A6954F8043CA4F1080055
:1034200013446B61FFF720FFEB690133EB61BDE8EB
:103430003840FEF725BB00BFEC010020014B586966
:10344000704700BFEC010020014B1869704700BFB6
:10345000EC010020704700BF2DE9F041DFF86480E7
:103460000746FEF703FBD8F8003033B30024D8F842
:10347000081025464FF0FF36D3E90032944238BF9A
:103480001446964228BF1646994205F10105F3D12C
:10349000FEF7F6FAC7E90146FD60FFF7D5FDD8E96A
:1034A0000501D8F81C20D8F810303860C7E905129B
:1034B0003B61BDE8F041FFF7E9BD1C461D464FF0FA
:1034C000FF36E5E7EC0100202DE9F041384888B0EF
:1034D0000446012101F070FC012104F10C0001F00F
:1034E0006BFC012104F1180001F066FC012104F1DC
:1034F000240001F061FC03220021204601F084FC3D
:103500000322002104F10C0001F07EFC03220021C3
:1035100004F1180001F078FC0322002104F12400DA
:1035200001F072FC0DF110080023CDE9028304F1D3
:103530001805264604F10C078DF8103013E03046CC
:1035400001F016FD0021284601F0F6FC9DF805303B
:10355000FBB1184801F00CFD0021384601F0ECFCED
:103560003220FEF75DFB206B00226946FDF752FA20
:103570000128F5D19DF80430002BE0D1284601F058
:10358000F7FC0021304601F0D7FC9DF80530002BF8
:10359000DFD1384601F0ECFC0648002101F0CCFCFC
:1035A000DEE70298404501D003F0D3FA03F0D7FAE2
:1035B0000C2E0120302E012030B50E4885B0A0F130
:1035C000340401F04DF804F134052946684601F051
:1035D0000FF90098BDF8041002900023ADF80C100C
:1035E000206B1A4602A9FDF751F81420FEF718FBCC
:1035F000EBE700BF402E01201C4838B55A21054694
:1036000000F08AFC05F11C041421284600F084FC1B
:103610004FF47A70FEF704FB3C21204600F07CFC5E
:103620004FF49670FEF7FCFA6421204600F074FC1B
:103630004FF49670FEF7F4FA7821284600F06CFCFF
:103640004FF47A70FEF7ECFA3C21204600F064FC5F
:103650004FF49670FEF7E4FA2046642100F05CFC1B
:103660004FF49670FEF7DCFACEE700BF642E01201F
:10367000704700BF704700BF284A294B116841F0CE
:1036800005011160116841F4807111601A6842F0FF
:1036900001021A601A689007FCD55A685A60596886
:1036A0001F4A21F03F015960596841F010015960EB
:1036B000596821F4FF4121F040015960596841F4F3
:1036C00080615960596841F480515960596841F4EA
:1036D00080415960596821F440315960996821F45A
:1036E000E0519960996841F4A0519960996821F47A
:1036F00060419960996841F400419960196841F00E
:103700008071196013689901FCD59368044943F0EE
:10371000020393608B681B07FCD57047003C024096
:1037200000380240C3898B4202D00368C1811985E9
:10373000704700BFC0897047038A8B4202D003687C
:103740000182D962704700BF008A7047438A8B426A
:103750000BD0037941824BB1012B0AD103689963E5
:103760007047032B0AD103681964704703685963D3
:103770007047022BF5D10368D9637047704700BFCB
:10378000408A704710B411BB037B8268072B41D875
:10379000106A01219B0001FA03F420EA0400106280
:1037A000106A5C1801FA04F420EA04001062106A3E
:1037B0009C1C01FA04F420EA04001062106A10BC98
:1037C000033301FA03F320EA03031362704701296C
:1037D00040D1037B8268072B00F25381146A9B005F
:1037E00001FA03F020431062106A5C1C01FA04F431
:1037F00020EA04001062106A9C1C01FA04F420EA1A
:1038000004001062106A10BC0333994020EA0101E1
:1038100011627047083B506A01219B0001FA03F4D2
:1038200020EA04005062506A5C1801FA04F420EAAD
:1038300004005062506A9C1C01FA04F420EA04005F
:103840005062506A033301FA03F320EA0303536220
:1038500010BC7047022913D1037B8268072B4FEA03
:10386000830340F20681506A012101FA03F420EA41
:1038700004005062146A581801FA00F0204395E7DA
:1038800003291ED18168037B0C6A01209B0000FA8A
:1038900003F222430A620C6A1A1800FA02F2224367
:1038A0000A620A6A9C1C00FA04F422EA04020A6210
:1038B0000A6A10BC033300FA03F322EA03030B6223
:1038C0007047042916D1037B81689B000A6A012096
:1038D00000FA03F422EA04020A620A6A1C1800FAD7
:1038E00004F422EA04020A620C6A9A1C00FA02F248
:1038F0002243DCE7052908D1037B81689B000C6A21
:10390000012000FA03F22243E6E706290FD1037BE8
:1039100081689B000A6A012000FA03F422EA04028B
:103920000A620C6A1A1800FA02F22243DBE707293E
:1039300008D1037B81689B000C6A012000FA03F226
:103940002243EDE708291DD1027B81689200486A75
:10395000012303FA02F420EA04004862486AD418FA
:1039600003FA04F420EA04004862486A941C03FA4B
:1039700004F420EA04004862486A03329340034397
:103980004B6265E7092908D1027B816892004C6A85
:10399000012303FA02F02043DFE70A291CD1027B4E
:1039A00080689200416A012303FA02F421EA0401CB
:1039B0004162446AD11803FA01F121434162416A2C
:1039C000941C03FA04F421EA04014162416A0332BF
:1039D00093400B4343623BE70B2908D1027B80688D
:1039E0009200446A012303FA02F12143E0E70C2923
:1039F00016D1027B80689200416A012303FA02F427
:103A000021EA04014162416AD41803FA04F421EA6C
:103A100004014162446A911C03FA01F12143D4E795
:103A20000D2908D1027B80689200446A012303FAC1
:103A300002F12143E6E70E290FD1027B8068920054
:103A4000416A012303FA02F421EA04014162446A53
:103A5000D11803FA01F12143DBE70F297FF4F8AE17
:103A6000027B80689200446A012303FA02F1214339
:103A7000ECE7106A012101FA03F420EA0400106265
:103A8000F8E6083B546A9B0001FA03F020435062B9
:103A9000506A5C1C01FA04F420EA04005062506A87
:103AA0009C1C01FA04F420EA04005062506A0333BB
:103AB000994020EA01015162CAE600BFF8B5044608
:103AC000BDF820507748E5810D46BDF8247021608F
:103AD00000269DF81C10227185429DF81820A360D5
:103AE000278266822273617369D0B5F1804F48D016
:103AF0006D48854240F09A806C4E306C40F0020078
:103B000030646B48854240F09980684E306C40F0DC
:103B1000200030646748854240F09880634E306CE6
:103B200040F0400030646448834242D0634883429E
:103B30005CD000F58060834247D15C4E306B40F032
:103B4000040030635E48834247D1584E306B40F0EA
:103B5000400030631E680120520000FA02F726EA96
:103B600007061E601E68024400FA02F232431A6021
:103B70002046FFF707FEE289238A2A852046EB626A
:103B8000F8BD4A4E306C40F0010030644D4885422B
:103B9000B7D1464E306C40F0100030644A48854240
:103BA000B8D1424E706C40F4802070644248834229
:103BB000BCD13E4E306B40F0010030631BE03B4E09
:103BC000706C40F001007064E0E74048834224D10B
:103BD000364E306B40F0080030633D48834213D1CD
:103BE000324E306B40F080003063B3E72F4E306BC5
:103BF00040F00200306337488342A3D12B4E306B34
:103C000040F020003063A5E733488342A2D1274E1D
:103C1000306B40F4807030639CE730488342EAD1D7
:103C2000224E306B40F01000306393E72C48854201
:103C300027D11E4E306C40F0040030642948854284
:103C40000DD11A4E706C40F0020070642648854217
:103C50000DD1164E306C40F08000306463E723488D
:103C6000854216D1114E706C40F48030706420484B
:103C700085427FF458AF0D4E306C40F48070306454
:103C800051E71C48854281D1084E306C40F0080055
:103C900030641948854281D1044E706C40F4003084
:103CA000706440E70000014000040040003802401A
:103CB00000140040001800400000024000040240D0
:103CC000001802400010004000480140000C024073
:103CD000001C02400014024000200240001002407C
:103CE0000008004000040140001C0040004001406A
:103CF00000200040000C0040004401400279002AEE
:103D00002ED103681A8B22F010021204120C1A83AF
:103D10001A8B92B242F020021A831A8B92B242F0AE
:103D200040021A831A8B92B242F008021A831A8C4C
:103D300092B242F001021A84B3F844206FEA424280
:103D40006FEA524292B2A3F844209A8A92B242F0A9
:103D500001029A821A8892B242F001021A807047D8
:103D6000012A1BD103681A8B22F480521204120C10
:103D70001A831A8B92B242F400521A831A8B92B2AF
:103D800042F480421A831A8B92B242F400621A8380
:103D90001A8C92B242F010021A84CDE7022A1BD18B
:103DA00003689A8B22F010021204120C9A839A8BE9
:103DB00092B242F020029A839A8B92B242F0400271
:103DC0009A839A8B92B242F008029A831A8C92B22A
:103DD00042F480721A84AFE7032A0368ACD19A8B4D
:103DE00022F480521204120C9A839A8B92B242F4FB
:103DF00000529A839A8B92B242F480429A839A8BB1
:103E000092B242F400629A831A8C92B242F48052C7
:103E10001A8491E7704700BF70B584B044F62066FD
:103E20009DF824509DF8204001955425CDE9025677
:103E3000009404460D46FFF741FE264BA361002186
:103E40004FF4FA722175E2822046FFF757FF224BAA
:103E50009D424FF05401204614D003F588439D4203
:103E600010D0FFF75FFC44F620612046FFF764FCAA
:103E70004FF4FA7140F6B832E1820B46228340F6E5
:103E8000C4110FE0FFF74EFC49F640412046FFF712
:103E900053FC4FF47A714FF47A62E1820B4622832D
:103EA00040F6B831A07EE27EC0F15A05121A01FB3D
:103EB00005F191FBF2F1194489B22046FFF746FC67
:103EC0005A232046237504B070BD2046FFF7A2FF99
:103ED00002F045FEA00F00B40000014010B4DDE97F
:103EE0000104891A241A9A1A04FB01F494FBF2F4CF
:103EF000204410BC704700BF30B4028B857EC48A5A
:103F0000C37E491B121B5B1B01FB02F191FBF3F10A
:103F1000081930BC704700BF2DE9F043037D5E1ADD
:103F2000002E83B004460D463EDB3AD0017B80680C
:103F3000DFF8E88007680122490002FA01FC27EA5D
:103F40000C070760076811448A403A434FF00009A4
:103F500002604F46E08A94F81AC0218BE27EA3EB00
:103F60000903DBB2A3EB0C03091A01FB03F1A2EB7B
:103F70000C0291FBF2F1014489B22046FFF7E6FB07
:103F80000197019B434505DC019B01330193019B94
:103F90004345F9DD09F101094E4501D0237DD9E7FB
:103FA000257503B0BDE8F083017B8068DFF86C8085
:103FB00006680122490002FA01F726EA07060660B0
:103FC000066811448A4032434FF0000902604F46B0
:103FD000EE1AE08A94F81AC0218BE27E4B44DBB2E1
:103FE000A3EB0C03091A01FB03F1A2EB0C0291FBFA
:103FF000F2F1014489B22046FFF7A8FB0097009B2D
:10400000434505DC009B01330093009B4345F9DDEC
:1040100009F101094E45C3D0237DDAE7DF9304009F
:1040200010B48168027B086801239A4003FA02F405
:1040300020EA04000860086810BC1A449340034357
:104040000B60704710B48268037B106801218B40BD
:1040500001FA03F420EA04001060106810BC0B445D
:1040600001FA03F320EA03031360704710B5044616
:10407000FFF7D0FE204610BD2DE9F04FC64C9DF84D
:1040800024909DF828809DF82C509DF830C09DF814
:1040900034709DF8386080F80990A1420160037285
:1040A00080F80A80C57280F80CC04773867300F0F0
:1040B0009081BA4CA14200F0078104F58064A142CE
:1040C00007D1DFF8E8E2DEF8404044F40044CEF8DF
:1040D0004040B34CA24200F00381B24CA24200F037
:1040E000B18104F58064A24240F07C81DFF8BCE23B
:1040F000DEF8304044F00404CEF83040AA4CA2422E
:1041000040F07B81DFF8A4E2DEF8304044F0400468
:10411000CEF83040D2F800A04FF0010B5C000BFA53
:1041200004FE2AEA0E0AC2F800A0D2F800A05C44FD
:104130000BFA04F42AEA040AC2F800A0D2F800A09C
:104140002AEA0E0AC2F800A0D2F800A04AEA040A3D
:10415000C2F800A0D2F808A02AEA0E0AC2F808A005
:10416000D2F808A02AEA040AC2F808A0D2F808A0E7
:104170004EEA0A0EC2F808E0D2F808E0072B44EA3B
:104180000E0494601CB200F2DE80D2F820E0A4009D
:104190000523A34043EA0E03136213684FF0010A9C
:1041A0004FEA490E0AFA0EF423EA04031360136877
:1041B000D6440AFA0EFE23EA0E031360136823EABC
:1041C00004031360136843EA0E031360936823EA41
:1041D00004039360936823EA0E03936093681C437F
:1041E00094609368B9F1070F4EEA030393600FFAE6
:1041F00089F300F29C80D2F820E09C000523A340C4
:1042000043EA0E031362D2F800E001234FEA4804A8
:1042100003FA04F92EEA090EC2F800E0D2F800E031
:104220001C44A34043EA0E03B8F1070F13600FFAD2
:1042300088F370D8D2F820E09C000523A34043EA1D
:104240000E0313620B8823F040031B041B0C022D8A
:104250000B8000F09A80042D00F08980082D7ED11B
:104260000B889BB243F010030B800B889BB243F486
:1042700000630B800B889BB243F004030B800B8818
:104280009BB243F440730B800B88BCF1000F3CD011
:104290009BB243F001030B800B8887B39BB243F0C2
:1042A00002030B800B8826B39BB243F080030B8084
:1042B0008B889BB243F004038B800B889BB243F046
:1042C00040030B80BDE8F08FDFF8E0E0DEF840400F
:1042D00044F48044CEF84040314CA2427FF4FDAE1D
:1042E000DFF8C8E0DEF8304044F00104CEF830409A
:1042F000B0E023F080031B041B0C0B80D8E723F0F5
:1043000002031B041B0C0B80CCE723F001031B04EE
:104310001B0C0B80C0E7A8F10803D2F824E09B0037
:10432000052404FA03F343EA0E0353628AE7A9F172
:104330000804D2F824E0A400052303FA04F444EAB4
:104340000E0454625FE7A3F1080E546A4FEA8E0E22
:10435000052303FA0EFE4EEA040454621DE7102DF5
:104360000BD10B889BB243F018030B807DE70B88C1
:104370009BB243F008030B8077E7202D18D10B8800
:104380009BB243F020030B806FE70B8823F03803C8
:104390001B041B0C0B8068E7003001400038004014
:1043A00000000240000402400018024000380240B1
:1043B000402D05D10B889BB243F028030B8054E7B6
:1043C000802D7FF452AF0B889BB243F030030B80FB
:1043D0004BE7DFF8B0E0DEF8444044F48054CEF818
:1043E000444076E6224CA24220D1DFF898E0DEF885
:1043F000304044F00804CEF830401E4CA24208D1B0
:10440000DFF880E0DEF8304044F08004CEF8304041
:1044100080E6194CA2427FF47DAEDFF868E0DEF85A
:10442000304044F48074CEF8304073E6134CA2421E
:1044300010D1DFF850E0DEF8304044F01004CEF840
:10444000304067E6DFF83CE0DEF8304044F002043C
:10445000CEF830400A4CA2427FF450AEDFF824E0A0
:10446000DEF8304044F02004CEF8304052E600BF81
:10447000000C0240001C02400020024000100240DC
:104480000014024000380240036899811A8991079C
:10449000FCD51A891206FCD4704700BF03689A89BC
:1044A00099811A89D107FCD51A891206FCD49889FA
:1044B00080B27047704700BFF0B587B000269DF806
:1044C00030409DF83470009410250124CDE9025449
:1044D000CDE90446019704460E9D9DF83C70FFF718
:1044E000CBFD4D4B25619D42C4E906662775E682EA
:1044F000266263D0494B9D4252D003F580639D42B2
:1045000062D1474A136B43F004031363454B9D424A
:1045100062D1434A136B43F04003136328680122BE
:104520007B0002FA03F1014329602968134402FA6F
:1045300003F321EA03032B606B69BA4023EA02020A
:104540006A6141F610612046FFF79EFF2369207DD6
:1045500059690122824011435961596921EA0202D5
:104560005A6142F257012046FFF78EFF2369207DF2
:1045700059690122824011435961596921EA0202B5
:104580005A614FF40C512046FFF77EFF2269207DCF
:104590005169012383400B432046536107B0F0BDAE
:1045A0001F4A136B43F0020313631F4B9D42ADD1AF
:1045B0001B4A136B43F020031363AFE7184A136BD6
:1045C00043F001031363F0E7184B9D4216D1144AE0
:1045D000136B43F008031363154B9D4205D1104A3A
:1045E000136B43F08003136398E7124B9D4295D100
:1045F0000B4A136B43F4807313638FE70E4B9D429A
:10460000D3D1074A136B43F01003136386E72046A8
:10461000FFF750FF02F0A3FA00000240000402403E
:10462000003802400018024000140240000C024012
:10463000001C024000200240001002400269007D80
:104640005169012383400B43536170470169007D29
:104650004B690122824023EA02034B61704700BF8D
:1046600038B50169027D4B69012404FA02F223EA9C
:10467000020305464B614FF40F41FFF70FFF2B6913
:10468000297D5A69C0B28C40A0F13F001443B0FAB2
:1046900080F040095C6138BDF8B50C460969227D9F
:1046A0004B69012606FA02F223EA02034B61054632
:1046B0004FF427412046FFF7F1FE2169237D4A6927
:1046C00006FA03F31A4307074A6108D4B4F91A300B
:1046D000E18A228BAB8029806A802846F8BD4A692E
:1046E00022EA03034B6120464FF42A41FFF7D6FE2E
:1046F0002369227D596906FA02F211435961596909
:10470000C0B221EA020220834FF42B415A612046B5
:10471000FFF7C4FE226994F814C0238B516900F09E
:104720007F0706FA0CF643EA0723000641EA060172
:104730001BB2516148BF5B422383536923EA0606DB
:1047400056614FF428412046FFF7A8FE2369227DD9
:104750005969012606FA02F2114359615969C0B23A
:1047600021EA0202E0824FF429415A612046FFF714
:1047700095FE2269277D5169E38ABE4000F07F07DC
:10478000314343EA072351611BB2010648BF5B4234
:10479000E382536923EA060656614FF42C41204612
:1047A000FFF77CFE2369227D5969012606FA02F291
:1047B000114359615969C0B221EA020260834FF482
:1047C0002D415A612046FFF769FE2269217D576914
:1047D000638B8E4000F07F013E4343EA01231BB20E
:1047E0005661020644BF5B421BB2638370E700BFA1
:1047F000F0B583B0044668460D46FFF74DFFBDF99E
:104800000230BDF90020314E03EB430302EB4202BC
:10481000C3EB0313C2EB021252005B0086FB0317CB
:1048200086FB0206D917D017C1EB2731C0EB263023
:1048300044F22A3C0EB207B26245EE83AF831DDD1F
:1048400001222A844FF0000C44F22A30834227DDF3
:1048500001236B840021278066800AB10122227126
:10486000BCF1000F01D0002222710BB10123637152
:1048700009B100236371204603B0F0BDDFF850C0DA
:10488000624519DAB43007B244F22A304FF480722C
:1048900083422A84AF834FF0010C4FF00002D7DC33
:1048A0000B4883420DDAB4310EB24FF480736B843F
:1048B000EE8301210023CEE795F8202095F821C052
:1048C000C2E795F8223095F82310C4E72F40FB3C4F
:1048D000D6BCFFFF10B50446FFF7ECFD204610BD27
:1048E00030B4016003999DF808504260002245727F
:1048F000C0E9031230BC0372704700BFB14B0168BE
:104900009942F0B400F04681AF4B994200F0E38049
:10491000A3F55043994240F07B81AC4A136C43F4B9
:10492000003313644368AA4A934200F0DE80A94A28
:10493000934200F05D8102F58062934240F0308145
:10494000A24C226B42F004022263A34A934240F03D
:104950002F819E4C226B42F040022263447A1D68F4
:104960000122640002FA04F425EA04041C60447A7B
:104970001E68022515FB042402FA04F434431C606B
:10498000447A9E68944002FA04F434439C60447A6A
:104990009E6815FB042402FA04F434439C60447AB4
:1049A000DE68944002FA04F43443DC60447ADE6842
:1049B00015FB042402FA04F426EA0404DC60447AB9
:1049C000072C00F2C7801E6AAC4002FA04F434439C
:1049D0001C62467A1F6A042414FB062602FA06F6B5
:1049E0003E431E62467A1F6A14FB065502FA05F51D
:1049F0003D431D62477A1D6A032614FB0764A240EB
:104A000025EA02021A62047A1D680122640002FA91
:104A100004F425EA04041C60047A1E68022515FBD0
:104A2000042402FA04F434431C60047ADE689440DF
:104A300002FA04F43443DC60047ADE6815FB0424D3
:104A400002FA04F426EA0404DC60047A072C61D834
:104A50001E6AAC4002FA04F434431C62067A1F6AF0
:104A6000042414FB062602FA06F63E431E62067A6A
:104A70001F6A14FB065502FA05F53D431D62077ACD
:104A80001D6A032614FB0764A24025EA02021A628B
:104A90004C4BC268994237D003F58063994233D0BA
:104AA0004E4BB3FBF2F39BB20B818B899BB243F06D
:104AB00008038B818B899BB243F004038B818B8924
:104AC0009BB243F400538B818B899BB243F020034C
:104AD000F0BC8B8170473D4A536C43F02003536414
:104AE00043683B4A93427FF422AF384C226B42F03A
:104AF000010222633A4A93427FF427AF334C226B80
:104B000042F02002226329E7364BB3FBF2F39BB25B
:104B10000B81CAE7083C5D6AA40002FA04F42C4346
:104B20005C62047A5D6AA4001F3C02FA04F42C4320
:104B30005C62047A5D6AA4001E3C02FA04F42C4311
:104B40005C62047A5D6AA4001D3CA24025EA020270
:104B50005A629DE7083C5D6AA40002FA04F42C4303
:104B60005C62447A5D6AA4001F3C02FA04F42C43A0
:104B70005C62447A5D6AA4001E3C02FA04F42C4391
:104B80005C62447A5D6AA4001D3CA24025EA0202F0
:104B90005A6238E70D4A536C43F010035364C1E680
:104BA000114A93423ED1094C226B42F00802226323
:104BB0000E4A934222D1054C226B42F080022263BE
:104BC000CCE600BF00100140001401400038024054
:104BD00000000240000402400018024080DE800213
:104BE0000014024000BD0105000C0240001C024000
:104BF000114C226B42F0020222637BE70F4A934280
:104C00007FF4ACAE0C4C226B42F480722263A5E6BA
:104C10000B4B99427FF486AE074A136C43F4802312
:104C200013647FE6074A93427FF464AF024C226B21
:104C300042F01002226391E6003802400020024058
:104C4000004800400010024003689888C0B27047D6
:104C500003690168C2180133B3F5806F8988117543
:104C6000A8BF00230361704700F1130300F2134152
:104C7000002203F8012F8B42FBD10261704700BF75
:104C8000026813881B06FCD589B29180704700BF6B
:104C900010B40C784CB1026813881B06FCD5A4B282
:104CA000948011F8014F002CF6D110BC704700BF62
:104CB00010B40C78026844B113881806FCD5A4B26D
:104CC000948011F8014F002CF6D113881B06FCD5F7
:104CD0000A2310BC93807047704700BF30B42D4C3E
:104CE000016001230025A142027105724371C38056
:104CF00024D0294B994212D003F58063994223D1E5
:104D0000264A136B43F004031363254B994223D1C6
:104D1000224A136B43F04003136330BC70471F4AB1
:104D2000136B43F0020313631E4B9942EDD11B4AF0
:104D3000136B43F0200330BC13637047174A136BA7
:104D400043F001031363EFE7174B994218D1134A5D
:104D5000136B43F008031363144B994206D10F4AB7
:104D6000136B43F0800330BC13637047104B9942C0
:104D7000D3D10A4A136B43F4807330BC136370477A
:104D80000C4B9942D0D1054A136B43F0100330BC51
:104D900013637047000002400004024000380240E4
:104DA0000018024000140240000C0240001C0240A7
:104DB000002002400010024010B4417191B9037903
:104DC0000268012110685B0001FA03F420EA040084
:104DD000106010680B4401FA03F320EA0303136028
:104DE00010BC70470129FBD10268037914685B008D
:104DF00001FA03F020431060106810BC01339940A1
:104E000020EA010111607047012930B48171C2713B
:104E100034D099B1E2B903790268012190685B004E
:104E200001FA03F420EA0400906090680B4401FA50
:104E300003F320EA0303936030BC704704680579EC
:104E400063680121A94023EA01036360002AE2D0DC
:104E5000012A1AD0022A28D0032AEDD1027901684A
:104E600052008C68012303FA02F0204388608868AE
:104E70001A449340034330BC8B6070470368057944
:104E80005C68A94021435960C4E7016803798C68D4
:104E90005B0002FA03F020438860886801339A407F
:104EA00020EA020230BC8A60704702790168520031
:104EB0008868012303FA02F420EA0400D6E700BF61
:104EC00010B4017291B9037902680121D0685B00C6
:104ED00001FA03F420EA0400D060D0680B4401FA20
:104EE00003F320EA0303D36010BC7047012912D0FA
:104EF0000229F9D1027901680123C868520003FA36
:104F000002F420EA0400C860C86810BC1A44934048
:104F10000343CB60704702680379D4685B0001FAF1
:104F200003F02043D060D06810BC0133994020EAE0
:104F30000101D160704700BF39B102680079516941
:104F4000012383400B4353617047016800794B692B
:104F50000122824023EA02034B6170470268017913
:104F6000126901238B40134214BF012000207047B7
:104F7000026800795169012383404B4053617047B7
:104F8000704700BF02B4714649084900095C4900F6
:104F90008E4402BC7047C04603B4714649084000C5
:104FA0004900095E49008E4403BC704703685A00FB
:104FB00004D5802212061343C01870475B005B08BB
:104FC000FAE7C046F8B557464546DE464E46904697
:104FD000E0B50700002924D04B1E9A4699460023CD
:104FE0009B465B464B44DC0FE4186410E5007E19D9
:104FF0003000FFF7DBFFA2450CD040450CD828005D
:1050000008303818FFF7D2FF013840450AD2631C38
:105010009B46E6E7404505D9A34502D0631E994665
:10502000DFE7002630003CBC90469946A246AB46DE
:10503000F8BC02BC0847C0460300012805D002287E
:1050400007D00020002B02D070470348FCE703483C
:10505000FAE70348F8E7C046AD5700089D57000837
:10506000BD57000830B5244B050083B08C1E002BC3
:1050700028D0200001A9AFF3008000281ED001999C
:105080002200FFF79FFF041E18D0FFF78FFF636811
:10509000A864012B2CD0201D002B25DBFFF786FFF9
:1050A0000023E8642B650368002B11DBFFF77EFF0C
:1050B0002861002003B030BC02BC0847002309204F
:1050C0002B61F7E70D480E49091AC9100191D7E77E
:1050D0001801000FFFF7B0FF2861431E9841082315
:1050E000404298430930E5E70123E8642B65DAE79D
:1050F000002305202B61DDE7000000003C7800085C
:105100007C790008036810B50400DA0705D49B0712
:105110000CD5483000F0D2FC23685A070CD51A078A
:1051200011D5DB0617D510BC01BC0047483000F094
:10513000BDFC23685A07F2D42000D03000F0C6FC32
:1051400023681A07EDD420005130FF3000F0C6FC70
:105150002368DB06E7D42000D130FF3000F002FDE9
:10516000E1E7C04603000068002800D0C01870477F
:10517000092070477047C04670B504000D0020003C
:10518000296CFFF76FFF002812D12B6C2A00636196
:1051900021000120236900F077FC0828EFD00728C0
:1051A00006D10020296CFFF7E5FF281D00F070FCF8
:1051B00000F02AFFF0B5CE46474680B5C368334CB1
:1051C0009846A5448369040016000431402205A8CE
:1051D000994600F073FF0023049327E0F022149B0C
:1051E0005200636104A97CA8039300F067FF2100CB
:1051F000280023697CAA00F047FC8A9B039315933F
:105200004B46019304AB05000093220023003100BC
:10521000012000F03BFC002824D1F0227CA95200A0
:1052200004A800F04BFF0026082D26D1149B200077
:1052300019000393FFF716FF0936350607002D0EF8
:105240000028CBD0129B039315934B46102101935A
:1052500004AB0093220023000120294300F016FC38
:10526000002800D009273800F5239B009D440CBC82
:1052700090469946F0BC02BC0847072DF2D1300099
:105280001499FFF777FF05A800F002FC2CFCFFFF44
:10529000406C704770B5CB6BFAB00B6405000E0024
:1052A0004022043103A800F009FF01235B4202936E
:1052B00007E029002B6902AA00F0E6FB0400082899
:1052C0000CD1129B280019000193FFF7CBFE002898
:1052D000EFD009207AB070BC02BC084702A8FFF7E3
:1052E00011FF062CF5D131002800FFF745FFC0461D
:1052F00010B58261DA6BC1601A6419000022FFF7F1
:1053000059FF10BC02BC0847436970B50B64C36801
:1053100004000D00002B14D10A00236901000220B3
:1053200000F0B2FB072805D008280FD12900200083
:10533000FFF722FF0020296CFFF71CFF281D00F05B
:10534000A7FB0122FFF736FF00F05EFE00F05CFED7
:10535000C36810B5002B07D0CB6B00220B64FFF79E
:1053600029FF10BC02BC0847FFF794FFF9E7C046CD
:105370007047C0468368010010B5002B02D00120A1
:1053800000F082FB10BC01BC0047C046012916D0CA
:105390000AD8002B11D10F2A0FD892008218526818
:1053A000009B00201A6007E0012003390906090E5E
:1053B000884280414042013070470220FCE70120D2
:1053C000FAE7C04600B585B003AB0A0000930021A0
:1053D0000023FFF7DBFF039805B002BC0847C04677
:1053E000012916D00AD8002B11D10F2A0FD8009B03
:1053F00092001B6882185360002007E001200339E7
:105400000906090E8842804140420130704702205F
:10541000FCE70120FAE7C04600B585B003AB039274
:1054200000930A0000230021FFF7DAFF05B001BC5A
:105430000047C046F0B51D4CD36BA544136406006D
:105440000D0019A8111D402200F038FE01235B4217
:105450000427189316E00C2118A802AAFFF7DCFF16
:10546000290018A800F011FB002813D1069B18AAE8
:1054700002A90830019300F007FB431FBB4304005F
:105480001B0608D0289B02A819000193FFF7EAFD2C
:105490000028E0D0092418A8FFF734FE200091234B
:1054A0009B009D44F0BC02BC0847C046BCFDFFFF0A
:1054B000F0B55746924603224546DE464E4688469C
:1054C0001100E0B5014089B000914146CC6C1D004F
:1054D000019308CC05A98B460694002D00D183E0EA
:1054E0001A0C1B045946059302230B72FD3313401B
:1054F0009B004A72E418009B022B01D143469C6B2F
:1055000043461B6DDB0707D55946504600F0DAFBD2
:10551000002834D1082033E02568002DF4D008237A
:10552000184000230293434243410393019B022B03
:1055300057D02588668804340123370099469F4355
:1055400043469B6C9C460F2150466744FFF73AFF49
:10555000760087421DD82B004A469343DF198742C5
:1055600017D902231E404B462B401D003543012D09
:1055700000D1BEE0022D00D188E0002D4BD00920E3
:1055800009B03CBC90469946A246AB46F0BC02BC72
:10559000084702231E40013B1D403543012D35D0F5
:1055A000022D26D0002DEAD104342568002DBDD16E
:1055B0005946504600F086FB0028E0D1029B002BA4
:1055C000A8D00F215046FFF7FDFE0E2102005046E5
:1055D000FFF722FF50460F216F4AFFF71DFF0720FC
:1055E000CEE766680834A7E71B0205935B461A817D
:1055F00081E72368009A5F007F08002A3CD1002BD6
:1056000000DA04340137BF00E419CEE7009B002B19
:1056100017D10834C9E7009B002BC5D02000FFF745
:10562000C5FC4346043405009C63404601F01EFB64
:105630000028A4D050462A000F21FFF7EDFE0720D6
:105640009EE743460D2150461D6AFFF7BBFE85428B
:10565000DFD143469B6A9C42DBD12000FFF7A6FCCA
:105660000F2102005046FFF7D7FE50464246002168
:10567000FFF7D2FE072083E743460D2150461D6AFF
:10568000FFF7A0FE854260D02368B8E72368009A40
:105690005F007F08002AEFD1039A002A01D1002F72
:1056A000ADD15823434499464346261DA0460025C4
:1056B0001C000EE04B4630000493FFF753FD002220
:1056C000010004AB200001F06DFA0135043600281A
:1056D0004ED1BD42EED12300444698460D2150469E
:1056E000FFF770FE4346049A18625A6206209C62D5
:1056F00046E7009B002BA4D12368DD0F63689A1C4A
:1057000000D13CE7424658320492013335D0201D87
:10571000FFF728FD2A00010004AB404601F042FAE1
:10572000002800D175E705000D215046FFF74AFE1D
:1057300043461862022D26D1049ADA6242462C337F
:105740005362434606209C621AE743469B6A9C428A
:105750009AD1434642469F620023D36204331363C7
:10576000231D53632368002B11DB0123029349E7B8
:10577000230044469846236841E70D215046FFF731
:1057800021FE434618624346049A5A62D9E7781CC0
:105790008000201862E7C0462D75000810B5002370
:1057A000FFF786FE10BC02BC0847C04610B50123B7
:1057B000FFF77EFE10BC02BC0847C04610B50223AE
:1057C000FFF776FE10BC02BC0847C046F0B546465F
:1057D000D6464F46C0B5050014001E00C2B00329CE
:1057E00055D05FD8002900D17DE0012951D1130C9B
:1057F00014049846320004239A431300240C012A0F
:1058000047D142461219012E00D1A9E0202A40D8E2
:1058100041460F2900D8C3E0A146052E00D1F1E092
:10582000002C36D1AA6B20AF002C2ED00023994635
:105830004346DB00FF180023E400D158F95004333D
:105840009C42FAD14B461219002B10D0EA46414631
:10585000102900D210214B46D80000231039C9006E
:105860005144D458CC5004339842FAD11218012E26
:1058700000D1C5E04346AA630F2B00D8D3E04B46C6
:10588000002B02D0684600F021F9002002E0032B33
:1058900043D0022042B01CBC90469946A246F0BCC0
:1058A00002BC08470429F4D1002BF2D11023934203
:1058B000EFD3026813426CD120AF380000F05CF9DE
:1058C00000230120AA6B010099400C4202D040CA7B
:1058D00099007E500133042BF5D13800AA6300F003
:1058E00041F90020D6E7002BD3D101218846291D9C
:1058F00000238C461004AA6B000C414699400842D4
:1059000003D0664680CA990077500133102BF4D13A
:105910000020A304BED4AA63BCE71404160C240C14
:105920003319102BB5D8082203681A4261D120AF71
:10593000380000F0F5F8F600AB6B002C0AD0F61A30
:10594000E400321F1C19BA18190009680433995071
:10595000A342F9D13800AB6300F0C0F8002099E70A
:10596000102A96D843460F2B93D8026816425ED170
:1059700020AF380000F09EF80023AA6B9946002C57
:1059800000D055E704323800AA6300F08FF80020F9
:1059900080E79A430260D130FF3000F0EDF88BE7EA
:1059A000102A5ED9052E00D073E710235B4299467A
:1059B000914401222B681A4208D093430222280006
:1059C00013432B60483000F07DF82B685A071FD432
:1059D00020AF380000F076F8EA46504600F07AF83A
:1059E00010244346AA6BE41A20AF002C00DD1FE709
:1059F0002DE7934303605130FF3000F091F896E7B4
:105A000020AFBFE7002C00D10CE72B685A07E3D585
:105A10000422280093432B60D03000F05BF843460B
:105A20000F2BD9D8D4E720A800F048F827E70323A4
:105A300028009A432A60483000F03CF8012E97D0A5
:105A400043460F2B00D9EDE620AF380000F03AF8BE
:105A5000AA6B002C00D0E9E6380000F02FF80020F7
:105A600018E72A681342E9D0052EE0D10123280067
:105A70009A4301331A432A60483020AF00F022F8DD
:105A8000380000F01FF8E3E7184730474047C046AA
:105A9000341080E2380091E80520A0E11C002DE9D7
:105AA000FF0F90E800709DE81CFF2FE1210B90ECA8
:105AB0001EFF2FE1210B80EC1EFF2FE1200B90EC4D
:105AC0001EFF2FE1200B80EC1EFF2FE1200BD0ECFE
:105AD0001EFF2FE1200BC0EC1EFF2FE10201F0ECB6
